:100000000C9462000C948A000C948A000C948A0070
:100010000C948A000C948A000C948A000C948A0038
:100020000C948A000C948A000C948A000C948A0028
:100030000C948A000C948A000C948A000C948A0018
:100040000C94D2080C948A000C94A0080C947A08A2
:100050000C948A000C948A000C948A000C948A00F8
:100060000C948A000C948A000000000024002700F1
:100070002A0000000000250028002B0000000008D6
:10008000000201000003040700000000000000005F
:1000900000000000230026002900040404040404D6
:1000A0000404020202020202030303030303010227
:1000B00004081020408001020408102001020408F6
:1000C00010201C0911241FBECFEFD8E0DEBFCDBF2A
:1000D00011E0A0E0B1E0E0E1FDE102C005900D9289
:1000E000AE3EB107D9F722E0AEEEB1E001C01D92FD
:1000F000AF3BB207E1F710E0C2E6D0E004C02197C1
:10010000FE010E94800EC136D107C9F70E948709FF
:100110000C94860E0C940000CF92DF92EF92FF9227
:10012000CF9380919A028C3009F44FC038F48B3011
:10013000F1F060E070E080EC9FE741C085518230D3
:10014000C0F7C09196026C2F70E0762F6627662765
:100150007F7780919702682B90E080E00E94350DB8
:100160002DEC3CEC4CEC5DE30E94EC0D4AC0609140
:10017000960270E090E080E00E94350D6B017C01FA
:10018000C0919702C7FF0AC0AC019B0160E070E01C
:1001900080E89FEB0E94220C6B017C01CF706C2FDA
:1001A00070E090E080E00E94370D2DEC3CEC4CECD0
:1001B0005DE30E94EC0DA70196010E94230CCF91F4
:1001C000FF90EF90DF90CF900895C09196026C2F32
:1001D00070E090E080E00E94350D6B017C01609141
:1001E00097026F7070E090E080E00E94370D2DEC78
:1001F0003CEC4CEC5DE30E94EC0DA70196010E94E3
:10020000230CC7FFDCCF9058DACFCF92DF92EF926A
:10021000FF92CF93DF93B0919B02A0E08111AB2FAF
:1002200080919C0290E0880F991FAC0140575F4F6E
:10023000C090A102D090A202E090A302F090A4028C
:1002400030E020E0FA01C591D491E881B90190E055
:1002500080E0EB23EA130AC02F5F3F4F6C157D054A
:100260008E059F0578F36FEF7FEFCB01DF91CF9184
:10027000FF90EF90DF90CF900895DC01ED91FC911D
:100280000190F081E02D0994AF92BF92CF92DF925E
:10029000EF92FF920F931F93CF93DF936C017B013B
:1002A0008B01040F151FEB015E01AE18BF08C017CC
:1002B000D10759F06991D601ED91FC910190F0813F
:1002C000E02DC6010995892B79F7C501DF91CF9102
:1002D0001F910F91FF90EF90DF90CF90BF90AF9064
:1002E0000895FC01538D448D252F30E0842F90E03C
:1002F000821B930B541710F0CF9608950197089521
:10030000FC01918D828D981761F0A28DAE0FBF2FE9
:10031000B11D5D968C91928D9F5F9F73928F90E03F
:1003200008958FEF9FEF0895FC01918D828D9817AE
:1003300031F0828DE80FF11D858D90E008958FEFEB
:100340009FEF0895FC01918D228D892F90E0805CB4
:100350009F4F821B91098F739927089587EF91E032
:100360000E94A20121E0892B09F420E0822F089548
:1003700080E090E0892B29F00E94AE0181110C945D
:1003800000000895FC01A48DA80FB92FB11DA35A38
:10039000BF4F2C91848D90E001968F739927848FA5
:1003A000A689B7892C93A089B1898C9183708064C8
:1003B0008C93938D848D981306C00288F389E02D69
:1003C00080818F7D80830895EF92FF920F931F931A
:1003D000CF93DF93EC0181E0888F9B8D8C8D9813F8
:1003E0001AC0E889F989808185FF15C09FB7F89404
:1003F000EE89FF896083E889F98980818370806450
:1004000080839FBF81E090E0DF91CF911F910F919A
:10041000FF90EF900895F62E0B8D10E00F5F1F4FA9
:100420000F731127E02E8C8D8E110CC00FB607FCB8
:10043000FACFE889F989808185FFF5CFCE010E9446
:10044000C201F1CFEB8DEC0FFD2FF11DE35AFF4FF1
:10045000F0829FB7F8940B8FEA89FB8980818062D4
:10046000CFCFCF93DF93EC01888D8823B9F0AA8991
:10047000BB89E889F9898C9185FD03C0808186FD5F
:100480000DC00FB607FCF7CF8C9185FFF2CF8081AE
:1004900085FFEDCFCE010E94C201E9CFDF91CF9160
:1004A000089590E0FC01E458FF4F2491FC01E255CF
:1004B000FF4F3491FC01E656FF4FE491EE23C9F063
:1004C000222339F0233001F1A8F4213019F1223030
:1004D00029F1F0E0EE0FFF1FEE58FF4FA591B49108
:1004E0008FB7F894EC91611126C030953E233C9370
:1004F0008FBF08952730A9F02830C9F0243049F77C
:10050000809180008F7D03C0809180008F778093E1
:100510008000DFCF84B58F7784BDDBCF84B58F7D3E
:10052000FBCF8091B0008F778093B000D2CF8091C5
:10053000B0008F7DF9CF3E2BDACFCF93DF9390E0E1
:10054000FC01E255FF4F249186569F4FFC01849198
:100550008823C9F090E0880F991FFC01E859FF4FEC
:10056000A591B491FC01EE58FF4FC591D491611152
:100570000DC09FB7F8948C91209582238C9388812D
:10058000282328839FBFDF91CF910895623051F4D3
:100590009FB7F8943C91822F809583238C93E881B8
:1005A0002E2BEFCF8FB7F894EC912E2B2C938FBF7F
:1005B000EACF8E3008F08E508770806480937C0084
:1005C00080917A00806480937A0080917A0086FD21
:1005D000FCCF809178009091790008953FB7F8940E
:1005E0008091EF019091F001A091F101B091F201A1
:1005F00026B5A89B05C02F3F19F00196A11DB11D7E
:100600003FBFBA2FA92F982F8827BC01CD01620FB9
:10061000711D811D911D42E0660F771F881F991F74
:100620004A95D1F708958F929F92AF92BF92CF9241
:10063000DF92EF92FF924B015C010E94EE026B0190
:100640007C010E94EE026C197D098E099F09683EAB
:10065000734081059105A8F321E0821A9108A10851
:10066000B10888EEC80E83E0D81EE11CF11C81148D
:100670009104A104B10429F7FF90EF90DF90CF908F
:10068000BF90AF909F908F900895CF92DF92EF929E
:10069000FF920F931F93CF93DF93CDB7DEB7C05474
:1006A000D1400FB6F894DEBF0FBECDBF2FB7F89480
:1006B0008091F3019091F401A091F501B091F601C0
:1006C0002FBF40919D0250919E0260919F027091B8
:1006D000A0028C019D01041B150B260B370BB901E1
:1006E000A801403D57406105710590F48091A50235
:1006F000C05CDE4F0FB6F894DEBF0FBECDBFDF91FA
:10070000CF911F910F91FF90EF90DF90CF900895C0
:1007100080939D0290939E02A0939F02B093A002AB
:1007200010929802109297021092960210929502DF
:100730001092940262E0809199020E949D0261E011
:1007400070E080E090E00E94130361E080919902E4
:100750000E949D0260E0809199020E945102809166
:100760009A028551823020F58BE291E10197F1F7F1
:1007700062E0809199020E949D028091A60290E021
:100780008230910538F0880F991F880F991F0597BF
:100790000197F1F7F89480E00E9405016F3F7F4FC9
:1007A0008F4F9F4F61F41092A502789480E0A0CF04
:1007B00064E170E080E090E00E941303D9CF81E013
:1007C0000E9405016F3F7F4F8F4F9F4F61F38E0156
:1007D0000F5F1F4F6E018FEBC81A8EEFD80A78019A
:1007E00080E00E940501F701608371838283938317
:1007F00081E00E940501F7016483758386839783F6
:10080000F8E0EF0EF11CEC14FD0451F7789430E0A1
:1008100020E0F801C080D180E280F38044815581DE
:1008200066817781FFEFCF16DF06EF06FF0631F016
:100830004F3F8FEF58076807780719F41092A50209
:10084000B5CFF90183E0F595E7958A95E1F7EC5688
:10085000FD4F8081880FC416D506E606F70610F115
:1008600080832F5F3F4F085F1F4F2832310589F685
:10087000409198022091940280919502280F33278D
:10088000331F80919602280F311D80919702820FAD
:10089000932F911D99274817190681F681E08093BF
:1008A000A50226CF8160DCCFCF92DF92EF92FF923C
:1008B0000E944503882349F080919A028B3028F0EA
:1008C0008D3040F08551823030F160E070E080EC96
:1008D0009FE71CC06091950270E090E080E00E946C
:1008E000370D2DEC3CEC4CEC5DE30E94EC0D6B0104
:1008F0007C016091940270E090E080E00E94370DEE
:100900009B01AC01C701B6010E94230CFF90EF9040
:10091000DF90CF90089560919402709195027627B0
:100920006727762790E080E00E94350D2DEC3CECA7
:100930004CEC5DE30E94EC0DE9CF089590E080E07F
:100940000895CF93DF93EC0160E08E810E94510205
:1009500061E08E810E94510260E08E810E9451020E
:100960008BE891E00197F1F7DF91CF910895CF9255
:10097000DF92EF92FF920F931F93CF93DF936C015F
:100980007C0187E0E80EF11CD0E0C0E0062F10E00B
:10099000B8010C2E02C0759567950A94E2F7617054
:1009A000F70181917F010E9451022196C430D10547
:1009B00079F7C601DF91CF911F910F91FF90EF90D2
:1009C000DF90CF900C94A104CF92DF92EF92FF9230
:1009D0000F931F93CF93DF93EC01F62E642F8C813E
:1009E0000E9451028D818F3F19F060E00E945102F8
:1009F0000F2D10E08F8584FF25C06E0187E0C80EA3
:100A0000D11CF12CE12CB8010E2C02C07595679514
:100A10000A94E2F76170F60181916F010E94510220
:100A2000FFEFEF1AFF0A88E0E816F10461F7CE0144
:100A3000DF91CF911F910F91FF90EF90DF90CF90BA
:100A40000C94A104B80184E0759567958A95E1F747
:100A5000CE010E94B7046F2DCE01DF91CF911F917F
:100A60000F91FF90EF90DF90CF900C94B70440E08F
:100A7000682F87EA92E00C94E40481E00E94370535
:100A80008BE39FE10197F1F70895CF93DF938230D5
:100A900029F49091B60298609093B6028093BA02BE
:100AA0001092BB0280E48093BC0280E18093BD027F
:100AB00080E58093BE0261E08091AB020E949D02BE
:100AC0008091AC028F3F19F061E00E949D0261E0CD
:100AD0008091AD020E949D02C7EAD2E09E01275A92
:100AE00032408091B60284FD0BC084E090E02196F4
:100AF0002817390744F461E08E810E949D02EECFF1
:100B000088E090E0F4CF8BE39DE00197F1F760E09F
:100B10008091AB020E94510260E08091AD020E9480
:100B200051028091AC028F3F19F060E00E945102A7
:100B30008091B60284FD34C063E087EA92E00E94AF
:100B4000B704CBE4D6E4CE010197F1F763E087EA7E
:100B500092E00E94B7042197F1F763E087EA92E000
:100B60000E94B70483E592E00197F1F762E087EA1B
:100B700092E00E94B7048091B60280620E9437051D
:100B800084E08093B7028CE00E9437050E943D0507
:100B900082E08093B80286E0DF91CF910C94370514
:100BA00080620E9437058BE496E40197F1F780910B
:100BB000B60280620E94370583E592E00197F1F763
:100BC0008091B60280620E943705D5CF9091BA021B
:100BD000691710F06FEF690FE62FF0E0E955FD4F50
:100BE0009489890F80680C94370541E00E94E404E1
:100BF00081E090E00895FB0101900020E9F7319732
:100C0000AF01461B570BDC01ED91FC910280F38193
:100C1000E02D09948F929F92AF92BF92EF92FF9234
:100C20000F931F93CF93DF93CDB7DEB7A1970FB686
:100C3000F894DEBF0FBECDBF7C01FA01CB0119A233
:100C4000223008F42AE08E010F5D1F4F822E912C76
:100C5000B12CA12CBF01A50194010E945E0EF901E7
:100C6000CA016A300CF5605DD8016E938D01232BAB
:100C7000242B252B79F790E080E0109721F0BD011F
:100C8000C7010E94FB05A1960FB6F894DEBF0FBE08
:100C9000CDBFDF91CF911F910F91FF90EF90BF904B
:100CA000AF909F908F900895695CDECFCF92DF92D6
:100CB000EF92FF92CF93DF936C01990FEE08FF083C
:100CC000F7FE23C06DE287EF91E00E943D01EC0149
:100CD00044275527BA014C195D096E097F092AE09E
:100CE00087EF91E00E940A06C80FD91F6EE171E0FC
:100CF00087EF91E00E94FB058C0F9D1FDF91CF9144
:100D0000FF90EF90DF90CF9008952AE0B701A60101
:100D100087EF91E00E940A06EC01E8CFCF92DF92C4
:100D2000EF92FF920F931F93CF93DF936B01770F97
:100D3000EE08FF08F7FE1BC0EC016DE20E943D01CA
:100D40008C0144275527BA014C195D096E097F09AA
:100D50002AE0CE010E940A06800F911FDF91CF91F9
:100D60001F910F91FF90EF90DF90CF9008952AE0B0
:100D7000B701A601DF91CF911F910F91FF90EF90E6
:100D8000DF90CF900C940A062F923F924F925F9281
:100D90006F927F928F929F92AF92BF92CF92DF928B
:100DA000EF92FF921F93CF93DF93EC016A017B01D7
:100DB000722EAB019601CB01B6010E94590E61E281
:100DC00071E0811126C046015701E894B7F82FEF72
:100DD0003FEF4FE75FE7C501B4010E94590E811153
:100DE0000CC02FEF3FEF4FE75FE7C501B4010E9452
:100DF0008F0C65E271E0181664F02FEF3FEF4FE7BC
:100E00005FE4C701B6010E94E70D1816B4F469E269
:100E100071E0CE01DF91CF911F91FF90EF90DF90B5
:100E2000CF90BF90AF909F908F907F906F905F908A
:100E30004F903F902F900C94FB052FEF3FEF4FE723
:100E40005FECC701B6010E948F0C87FDE0CF20E068
:100E500030E0A901C701B6010E948F0C312C212C72
:100E600087FF09C06DE2CE010E943D011C01F7FA27
:100E7000F094F7F8F09410E060E070E080E09FE319
:100E8000711641F020E030E040E251E40E94940C01
:100E90001F5FF6CFA70196010E94230C2B013C0196
:100EA0000E94060D4B015C012AE0BC01A401CE01A9
:100EB0000E940A067C01E20CF31C1123C1F1C5015A
:100EC000B4010E94350D9B01AC01C301B2010E9427
:100ED000220C4B015C016EE2CE010E943D01E80E46
:100EE000F91E115020F120E030E040E251E4C5014C
:100EF000B4010E94EC0D2B013C010E94060D4B0138
:100F0000B12CA12C2AE0B501A401CE010E940A0651
:100F1000E80EF91EC501B4010E94350D9B01AC011C
:100F2000C301B2010E94220C4B015C01DACFC70160
:100F3000DF91CF911F91FF90EF90DF90CF90BF9006
:100F4000AF909F908F907F906F905F904F903F9069
:100F50002F9008950C94FB058F929F92AF92BF92B1
:100F6000CF92DF92EF92FF920F931F93CF93DF9375
:100F70000E9454044B015C010E944503882309F43C
:100F8000B2C00E948C006B017C0185E10E94D902F5
:100F90008C0184E10E94D902EC010E943D056DE2C2
:100FA00071E087EF91E00E94AA07C8010E945606EF
:100FB00060E080E00E94E6056EE371E087EA92E07F
:100FC0000E94AA0760E08CE00E94E605B80187EA6B
:100FD00092E00E948E0669E471E087EF91E00E9442
:100FE000AA07CE010E94560661E080E00E94E60555
:100FF00068E571E087EA92E00E94AA0761E08CE070
:101000000E94E605BE0187EA92E00E948E0668EE25
:1010100073E080E090E00E9413030E943D0564E6C7
:1010200071E087EF91E00E94AA0722E0B501A401D8
:1010300087EF91E00E94C4066EE171E087EF91E0D6
:101040000E94FB0560E080E00E94E60564E671E036
:1010500087EA92E00E94AA0760E08BE00E94E60522
:1010600022E0B501A40187EA92E00E94C40660E78D
:1010700071E087EF91E00E94AA0722E0B701A60184
:1010800087EF91E00E94C4066EE171E087EF91E086
:101090000E94FB0561E080E00E94E6056FE771E0D9
:1010A00087EA92E00E94AA0761E08CE00E94E605D0
:1010B00022E0B701A60187EA92E00E94C40668EE2A
:1010C00073E080E090E00E941303DF91CF911F91C5
:1010D0000F91FF90EF90DF90CF90BF90AF909F90D7
:1010E0008F900C943D05C12CD12C80ECE82E8FE71D
:1010F000F82E4BCF1F920F920FB60F9211242F9301
:101100003F934F935F936F937F938F939F93AF938F
:10111000BF93EF93FF9387EF91E00E94C201FF918D
:10112000EF91BF91AF919F918F917F916F915F915F
:101130004F913F912F910F900FBE0F901F901895D8
:101140001F920F920FB60F9211242F938F939F939C
:10115000EF93FF93E0910702F09108028081E09104
:101160000D02F0910E0282FD1BC090818091100251
:101170008F5F8F7320911102821741F0E09110026E
:10118000F0E0E950FE4F958F80931002FF91EF91B0
:101190009F918F912F910F900FBE0F901F901895D8
:1011A0008081F4CF1F920F920FB60F9211242F93CC
:1011B0003F938F939F93AF93BF938091F30190914F
:1011C000F401A091F501B091F6013091EE0123E018
:1011D000230F2D3758F50196A11DB11D2093EE0167
:1011E0008093F3019093F401A093F501B093F6017D
:1011F0008091EF019091F001A091F101B091F20185
:101200000196A11DB11D8093EF019093F001A09371
:10121000F101B093F201BF91AF919F918F913F91F6
:101220002F910F900FBE0F901F90189526E8230F57
:101230000296A11DB11DD2CFE7EFF1E01382128219
:1012400088EE93E0A0E0B0E084839583A683B78323
:1012500084E091E09183808385EC90E0958784879A
:1012600084EC90E09787868780EC90E0918B808B70
:1012700081EC90E0938B828B82EC90E0958B848B59
:1012800086EC90E0978B868B118E128E138E148EC7
:10129000E7EAF2E01382128286E191E09183808393
:1012A00087E084838FEF858386E0868385E087836C
:1012B00084E0808783E0818782E0828713861486BA
:1012C00015861686178681E00E944505A4E9B2E0DE
:1012D00083E115968C9315978BE016968C93169751
:1012E000E1ECF0E0E4911796EC931797EDEAF0E06B
:1012F000E4911896EC93189740E85EE360E070E0A4
:101300001D964D935D936D937C93509708957894BB
:1013100084B5826084BD84B5816084BD85B58260FA
:1013200085BD85B5816085BD80916E0081608093AB
:101330006E00109281008091810082608093810014
:101340008091810081608093810080918000816024
:10135000809380008091B10084608093B10080917F
:10136000B00081608093B00080917A0084608093A7
:101370007A0080917A00826080937A0080917A006E
:10138000816080937A0080917A00806880937A00EF
:101390001092C100E0910702F091080282E0808380
:1013A000E0910302F09104021082E0910502F091B5
:1013B00006028FEC808310920F02E0910B02F091F5
:1013C0000C0286E08083E0910902F0910A0280819C
:1013D00080618083E0910902F0910A028081886037
:1013E0008083E0910902F0910A0280818068808305
:1013F000E0910902F0910A0280818F7D808362E092
:10140000809199020E949D022FB7F8948091F30178
:101410009091F401A091F501B091F6012FBF805D8C
:101420009740A109B10980939D0290939E02A093D9
:101430009F02B093A00287E38093A60282E00E94FD
:10144000450567E871E087EA92E00E94AA0761E03B
:1014500080E00E94E60569E971E087EA92E00E9477
:10146000AA0762E080E00E94E60568EE73E080E093
:1014700090E00E9413030E943D0568EA71E087EA4C
:1014800092E00E94AA0761E080E00E94E60567EB17
:1014900071E087EA92E00E94AA0768EE73E080E0BC
:1014A00090E00E94130360E085E10E949D0260E0ED
:1014B00084E10E949D0261E089E00E949D0261E05A
:1014C0008AE00E949D0261E08BE00E949D0261E043
:1014D00088E00E949D020E943D0590E0A92E90E0C8
:1014E000B92E0E9454042B013C010E94450388231D
:1014F00009F47AC10E948C006B017C0185E10E9495
:10150000D902EC0184E10E94D9028C0120E030E094
:1015100044E352E4C701B6010E94E70D18160CF02F
:1015200071C00E94AC0760E080E00E94E60561E0C7
:101530008AE00E94510268EC71E087EA92E00E9422
:10154000AA0768EE73E080E090E00E94130320E0B9
:1015500030E040EA52E4C301B2010E94E70D60E0CE
:1015600018167CF461E080E00E94E60561E08BE003
:101570000E9451026FEC71E087EA92E00E94AA0794
:1015800061E08BE00E94510268EE73E080E090E041
:101590000E9413030E943D05023C81E018070CF4F1
:1015A0002AC10E943D0561E088E00E94510260E08E
:1015B00080E00E94E60569ED71E087EA92E00E9412
:1015C000AA0768EE73E080E090E00E941303C73240
:1015D00082E0D8070CF414C10E943D0561E089E067
:1015E0000E94510261E080E00E94E60566EE71E033
:1015F00087EA92E00E94AA0768EE73E080E090E03C
:101600000E94130320E030E040E251E4C701B6013C
:101610000E948F0C87FF6EC00E94AC0761E08BE0D8
:101620000E94510260E080E00E94E6056FEC71E0EC
:1016300087EA92E00E94AA0768EE73E080E090E0FB
:101640000E94130320E030E040E751E4C301B201FF
:101650000E948F0C87FFD9C061E080E00E94E60500
:1016600068EC71E087EA92E00E94AA0768EE73E0F6
:1016700080E090E00E9413030E943D05023C81E05F
:1016800018070CF4C7C00E943D0561E088E00E9485
:10169000510260E080E00E94E60561E08AE00E947D
:1016A000510269ED71E087EA92E00E94AA0768EEB4
:1016B00073E080E090E00E9413030E943D05C73272
:1016C00082E0D8070CF4AFC00E943D0561E089E0DC
:1016D0000E94510261E080E00E94E60566EE71E042
:1016E00087EA92E00E94AA0768EE73E080E090E04B
:1016F0000E94130320E030E040E251E4C701B6014C
:101700000E94E70D87FD64C020E030E044E352E42E
:10171000C701B6010E948F0C18160CF459C00E9424
:10172000AC0760E08AE00E94510220E030E040EA2D
:1017300052E4C301B2010E94E70D60E018168CF478
:1017400061E080E00E94E6056FEC71E087EA92E0DC
:101750000E94AA0768EE73E080E090E00E94130305
:1017600061E08BE00E945102023C11400CF460C029
:101770000E943D0561E088E00E94510261E080E046
:101780000E94E60569ED71E087EA92E00E94AA07EF
:1017900068EE73E080E090E00E941303C732D2400D
:1017A0000CF44BC00E943D0561E089E00E945102AB
:1017B00061E080E00E94E60566EE71E087EA92E073
:1017C0000E94AA0768EE73E080E090E00E94130395
:1017D000A114B10409F485CE0E94AE01882309F456
:1017E00080CE0E9400007DCEC12CD12C80ECE82E52
:1017F0008FE7F82E83CE60E088E00E945102E1CEB0
:1018000060E089E00E945102FDCE60E08AE00E9423
:10181000510232CF60E088E00E94510260E08AE02D
:101820000E9451024ACF60E089E00E94510262CFDB
:1018300060E088E00E945102B1CF60E089E00E9440
:101840005102C6CF5058BB27AA270E943A0C0C94CD
:10185000AD0D0E949F0D38F00E94A60D20F039F4C6
:101860009F3F19F426F40C949C0D0EF4E095E7FBD1
:101870000C94960DE92F0E94BE0D58F3BA1762071B
:1018800073078407950720F079F4A6F50C94E00D12
:101890000EF4E0950B2EBA2FA02D0B01B90190018B
:1018A0000C01CA01A0011124FF27591B99F0593FCF
:1018B00050F4503E68F11A16F040A22F232F342F17
:1018C0004427585FF3CF469537952795A795F04065
:1018D0005395C9F77EF41F16BA0B620B730B840B7A
:1018E000BAF09150A1F0FF0FBB1F661F771F881F32
:1018F000C2F70EC0BA0F621F731F841F48F487958A
:1019000077956795B795F7959E3F08F0B0CF93957B
:10191000880F08F09927EE0F9795879508950E94F4
:10192000720D08F481E008950E94A80C0C94AD0D8E
:101930000E94A60D58F00E949F0D40F029F45F3FD1
:1019400029F00C94960D51110C94E10D0C949C0D02
:101950000E94BE0D68F39923B1F3552391F3951BB3
:10196000550BBB27AA2762177307840738F09F5FC0
:101970005F4F220F331F441FAA1FA9F335D00E2E2D
:101980003AF0E0E832D091505040E695001CCAF79A
:101990002BD0FE2F29D0660F771F881FBB1F26175D
:1019A00037074807AB07B0E809F0BB0B802DBF0134
:1019B000FF2793585F4F3AF09E3F510578F00C9403
:1019C000960D0C94E10D5F3FE4F3983ED4F38695B9
:1019D00077956795B795F7959F5FC9F7880F911D24
:1019E0009695879597F90895E1E0660F771F881F10
:1019F000BB1F621773078407BA0720F0621B730BC3
:101A0000840BBA0BEE1F88F7E09508950E94C60D6F
:101A100088F09F5798F0B92F9927B751B0F0E1F0AF
:101A2000660F771F881F991F1AF0BA95C9F714C05F
:101A3000B13091F00E94E00DB1E008950C94E00DFA
:101A4000672F782F8827B85F39F0B93FCCF3869598
:101A500077956795B395D9F73EF4909580957095F5
:101A600061957F4F8F4F9F4F0895E89409C097FB72
:101A70003EF490958095709561957F4F8F4F9F4F65
:101A80009923A9F0F92F96E9BB279395F6958795A9
:101A900077956795B795F111F8CFFAF4BB0F11F46C
:101AA00060FF1BC06F5F7F4F8F4F9F4F16C0882313
:101AB00011F096E911C0772321F09EE8872F762F49
:101AC00005C0662371F096E8862F70E060E02AF08A
:101AD0009A95660F771F881FDAF7880F9695879576
:101AE00097F90895990F0008550FAA0BE0E8FEEF4B
:101AF00016161706E807F907C0F012161306E407D2
:101B0000F50798F0621B730B840B950B39F40A26CA
:101B100061F0232B242B252B21F408950A2609F4A8
:101B2000A140A6958FEF811D811D089597F99F67AC
:101B300080E870E060E008959FEF80EC0895002455
:101B40000A941616170618060906089500240A9422
:101B500012161306140605060895092E0394000CA8
:101B600011F4882352F0BB0F40F4BF2B11F460FF37
:101B700004C06F5F7F4F8F4F9F4F089557FD905860
:101B8000440F551F59F05F3F71F04795880F97FB41
:101B9000991F61F09F3F79F08795089512161306FB
:101BA0001406551FF2CF4695F1DF08C0161617062A
:101BB0001806991FF1CF869571056105089408955F
:101BC000E894BB2766277727CB0197F908950E94F1
:101BD000720D08F48FEF08950E94FF0D0C94AD0D67
:101BE0000E949F0D38F00E94A60D20F0952311F061
:101BF0000C94960D0C949C0D11240C94E10D0E94F4
:101C0000BE0D70F3959FC1F3950F50E0551F629F75
:101C1000F001729FBB27F00DB11D639FAA27F00D45
:101C2000B11DAA1F649F6627B00DA11D661F829F6C
:101C30002227B00DA11D621F739FB00DA11D621F51
:101C4000839FA00D611D221F749F3327A00D611D6E
:101C5000231F849F600D211D822F762F6A2F112450
:101C60009F5750409AF0F1F088234AF0EE0FFF1F83
:101C7000BB1F661F771F881F91505040A9F79E3FDA
:101C8000510580F00C94960D0C94E10D5F3FE4F348
:101C9000983ED4F3869577956795B795F795E79530
:101CA0009F5FC1F7FE2B880F911D9695879597F939
:101CB00008950E94720D880B990B0895A1E21A2EC7
:101CC000AA1BBB1BFD010DC0AA1FBB1FEE1FFF1FE0
:101CD000A217B307E407F50720F0A21BB30BE40B30
:101CE000F50B661F771F881F991F1A9469F7609577
:101CF0007095809590959B01AC01BD01CF01089531
:101D0000EE0FFF1F0590F491E02D0994F894FFCF9A
:101D100000000000E401440171013102A2018001D0
:101D2000940100000000F50544019E049D040D0A85
:101D3000006E616E00696E66006F766600536F69B3
:101D40006C204D6F697374757265203D2000536F70
:101D5000696C204D6F69733D004169722051756156
:101D60006C697479203D2000416972205175616C65
:101D7000203D200048756D6964697479203D20001C
:101D800054656D7065726174757265203D200054F4
:101D9000656D7065723D00536D61727420477265A8
:101DA000656E20486F757365002056697368616CB5
:101DB0002054686F72617400204D617975726920DA
:101DC0005368696D7069002053686976616E692097
:101DD000476176616468650046616E204F6E004819
:101DE0006561746572204F6E00476173206465748D
:0E1DF00065637465640050756D70204F6E0061
:00000001FF
